2025-04-07 13:55:45 [INFO]: Initiating sellETHForUSDC | Metadata: {"amount":"0.05"}
2025-04-07 13:55:45 [ERROR]: Failed to sell ETH for USDC: Do not know how to serialize a BigInt | Metadata: {"originalError":"Do not know how to serialize a BigInt"}
2025-04-07 13:57:43 [INFO]: Initiating sellETHForUSDC | Metadata: {"amount":"0.05"}
2025-04-07 13:57:43 [ERROR]: Insufficient USDC reserves: 100000000.0 USDC required, 0.0 available | Metadata: {"usdcRequired":"100000000000000","usdcBalance":"0"}
2025-04-07 13:57:43 [ERROR]: Failed to sell ETH for USDC: Insufficient USDC reserves: 100000000.0 USDC required, 0.0 available | Metadata: {"originalError":"Insufficient USDC reserves: 100000000.0 USDC required, 0.0 available"}
2025-04-07 14:16:07 [INFO]: Initiating sellETHForUSDC | Metadata: {"amount":"0.000001"}
2025-04-07 14:16:07 [ERROR]: Insufficient USDC reserves: 2000.0 USDC required, 0.0 available | Metadata: {"usdcRequired":"2000000000","usdcBalance":"0"}
2025-04-07 14:16:07 [ERROR]: Failed to sell ETH for USDC: Insufficient USDC reserves: 2000.0 USDC required, 0.0 available | Metadata: {"originalError":"Insufficient USDC reserves: 2000.0 USDC required, 0.0 available"}
2025-04-07 14:37:08 [INFO]: Initiating sellETHForUSDC | Metadata: {"amount":"0.000001"}
2025-04-07 14:37:08 [ERROR]: Failed to sell ETH for USDC: usdcBalance is not defined | Metadata: {"originalError":"usdcBalance is not defined"}
2025-04-07 14:37:48 [INFO]: Initiating sellETHForUSDC | Metadata: {"amount":"0.000001"}
2025-04-07 14:37:48 [ERROR]: Failed to sell ETH for USDC: warn is not defined | Metadata: {"originalError":"warn is not defined"}
2025-04-07 14:38:42 [INFO]: Initiating sellETHForUSDC | Metadata: {"amount":"0.000001"}
2025-04-07 14:38:42 [ERROR]: Contract has no USDC reserves available
2025-04-07 14:38:42 [ERROR]: Failed to sell ETH for USDC: Contract has no USDC reserves available | Metadata: {"originalError":"Contract has no USDC reserves available"}
2025-04-07 16:08:31 [INFO]: Initiating buyETHWithUSDC | Metadata: {"amount":"10"}
2025-04-07 16:08:31 [INFO]: Executing transaction: Approved 10 USDC for buying ETH | Metadata: {"args":["0x86A2EE8FAf9A840F7a2c64CA3d51209F9A02081D","10000000"]}
2025-04-07 16:08:35 [INFO]: Approved 10 USDC for buying ETH - Transaction completed | Metadata: {"txHash":"0x4eb67e3ff9ca2051165cedf3fc3a512a5b883fbbdc7f05b36cc6bdff78e660f0"}
2025-04-07 16:08:35 [ERROR]: Insufficient ETH reserves: 0.000000000000005 ETH required | Metadata: {"available":"0.0"}
2025-04-07 16:08:35 [ERROR]: Failed to buy ETH with USDC: Insufficient ETH reserves: 0.000000000000005 ETH required | Metadata: {"originalError":"Insufficient ETH reserves: 0.000000000000005 ETH required"}
2025-04-08 09:36:31 [INFO]: Initiating buyETHWithUSDC | Metadata: {"amount":"10"}
2025-04-08 09:36:31 [INFO]: Executing transaction: Approved 10 USDC for buying ETH | Metadata: {"args":["0x5FC8d32690cc91D4c39d9d3abcBD16989F875707","10000000"]}
2025-04-08 09:36:31 [INFO]: Approved 10 USDC for buying ETH - Transaction completed | Metadata: {"txHash":"0x02cca271fde4be7b64296f387a873309188afc13151125b78efb7725d0848736"}
2025-04-08 09:36:31 [ERROR]: Insufficient ETH reserves: 0.000000000000005 ETH required | Metadata: {"available":"0.0"}
2025-04-08 09:36:31 [ERROR]: Failed to buy ETH with USDC: Insufficient ETH reserves: 0.000000000000005 ETH required | Metadata: {"originalError":"Insufficient ETH reserves: 0.000000000000005 ETH required"}
2025-04-08 09:38:21 [INFO]: Initiating sellETHForUSDC | Metadata: {"amount":"10"}
2025-04-08 09:38:21 [ERROR]: Failed to sell ETH for USDC: this.exchangeManager.getUSDCBalance is not a function | Metadata: {"originalError":"this.exchangeManager.getUSDCBalance is not a function"}
2025-04-08 09:40:57 [INFO]: Initiating sellETHForUSDC | Metadata: {"amount":"10"}rror":"unsupported addressable value (argument=\"target\", value=null, code=INVALID_ARGUMENT, version=6.13.5)"}

2025-04-08 09:40:57 [ERROR]: Failed to sell ETH for USDC: this.exchangeManager.getUSDCBalance is not a function | Metadata: {"originalError":"this.exchangeManager.getUSDCBalance is not a function"}
2025-04-08 09:48:27 [INFO]: Fetching token info
2025-04-08 09:48:27 [ERROR]: Failed to fetch token info: this.exchangeManager.getUSDCBalance is not a function | Metadata: {"originalError":"this.exchangeManager.getUSDCBalance is not a function"}
2025-04-08 09:53:28 [INFO]: Fetching token info
2025-04-08 09:53:28 [INFO]: Token info fetched successfully | Metadata: {"name":"DajuToken","symbol":"DAJU"}
2025-04-08 09:54:18 [INFO]: Initiating sellETHForUSDC | Metadata: {"amount":"10"}
2025-04-08 09:54:18 [ERROR]: Insufficient USDC reserves: 20000000000000000.0 USDC required, 5000.0 available | Metadata: {"usdcRequired":"20000000000000000000000","usdcBalance":"5000000000"}
2025-04-08 09:54:18 [ERROR]: Failed to sell ETH for USDC: Insufficient USDC reserves: 20000000000000000.0 USDC required, 5000.0 available | Metadata: {"originalError":"Insufficient USDC reserves: 20000000000000000.0 USDC required, 5000.0 available"}
2025-04-08 09:55:03 [INFO]: Initiating buyETHWithUSDC | Metadata: {"amount":"10"}
2025-04-08 09:55:03 [INFO]: Executing transaction: Approved 10 USDC for buying ETH | Metadata: {"args":["0x959922bE3CAee4b8Cd9a407cc3ac1C251C2007B1","10000000"]}
2025-04-08 09:55:07 [INFO]: Approved 10 USDC for buying ETH - Transaction completed | Metadata: {"txHash":"0xaa563c0c410e8ca5d5b53a4d7bb82e5c45540d9867fcf26c8d9f9e502f45aabb"}
2025-04-08 09:55:07 [ERROR]: Insufficient ETH reserves: 0.000000000000005 ETH required | Metadata: {"available":"0.0"}
2025-04-08 09:55:07 [ERROR]: Failed to buy ETH with USDC: Insufficient ETH reserves: 0.000000000000005 ETH required | Metadata: {"originalError":"Insufficient ETH reserves: 0.000000000000005 ETH required"}
2025-04-08 10:05:29 [INFO]: Initiating buyETHWithUSDC | Metadata: {"amount":"2000"}
2025-04-08 10:05:29 [INFO]: Executing transaction: Approved 2000 USDC for buying ETH | Metadata: {"args":["0xf5059a5D33d5853360D16C683c16e67980206f36","2000000000"]}
2025-04-08 10:05:33 [INFO]: Approved 2000 USDC for buying ETH - Transaction completed | Metadata: {"txHash":"0x11c583296579fd04236926c00da7f687e3b5c2e0931f3e3e21e5bc5fce44717e"}
2025-04-08 10:05:33 [INFO]: Executing transaction: Bought ETH with 2000 USDC | Metadata: {"args":["2000000000"]}
2025-04-08 10:05:37 [INFO]: Bought ETH with 2000 USDC - Transaction completed | Metadata: {"txHash":"0x9ddfa460d81b3f3e2c42a6366d137fb6dccd1271e1914a838a70558d944bf51f"}
2025-04-08 10:05:37 [INFO]: Calculating ETH amount | Metadata: {"usdcAmount":"2000"}
2025-04-08 10:05:37 [ERROR]: Failed to calculate ETH amount: this.exchangeManager.calculateETHAmount is not a function | Metadata: {"originalError":"this.exchangeManager.calculateETHAmount is not a function"}
2025-04-09 09:23:43 [INFO]: Successfully bought ETH with USDC | Metadata: {"amount":"2000","ethReceived":"1.0","txHash":"0x9929e1728494c7d89b9b9ca6438a04885e68d18cbf8cbcdda48295f8a488e881"}
2025-04-09 09:23:43 [INFO]: ETH amount calculated | Metadata: {"usdcAmount":"2000","ethAmount":"1.0"}
2025-04-09}
 09:26:39 [INFO]: Successfully sold ETH for USDC | Metadata: {"amount":"1.0","usdcReceived":"2000.0","txHash":"0x5fce749f35be9bc52a5dcf20f0c15a0e5adfae9c585a499ef1426078e23f4ebb"}
2025-04-09 09:26:39 [INFO]: USDC amount calculated | Metadata: {"ethAmount":"1.0","usdcAmount":"2000.0"}
2025-04-09 09:37:44 [ERROR]: Failed to buy ETH with USDC | Metadata: {"amount":"2000","error":"nonce has already been used (transaction=\"0x02f891827a690d843b9aca00845259340c830493e0945fc8d32690cc91d4c39d9d3abcbd16989f87570780a44d2def0a0000000000000000000000000000000000000000000000000000000077359400c001a0029dc02629972cfbde4d099798f701825775d5eb52fe5b1e9348279f10c68266a0459eadf2917dbdeaf81cc9288098cfd56662d1ee43ce830d5cd9ce6829b99666\", info={ \"error\": { \"code\": -32000, \"data\": { \"data\": null, \"message\": \"Nonce too low. Expected nonce to be 14 but got 13. Note that transactions can't be queued when automining.\" }, \"message\": \"Nonce too low. Expected nonce to be 14 but got 13. Note that transactions can't be queued when automining.\" } }, code=NONCE_EXPIRED, version=6.13.5)"}
2025-04-09 09:38:16 [INFO]: Successfully bought ETH with USDC | Metadata: {"amount":"2000","ethReceived":"1.0","txHash":"0xbb26c1d356e601f59027c89928e1028220e47e2e69fed8e06296282d74b2c2b5"}
2025-04-09 09:38:45 [INFO]: Successfully sold ETH for USDC | Metadata: {"amount":"1.0","usdcReceived":"2000.0","txHash":"0x07ef5b32c29cd46d9b2ec03afa7402b2a5c6e782af8cd13da224dfe00ea633ec"}
2025-04-09 10:04:00 [INFO]: Successfully bought ETH with USDC | Metadata: {"amount":"1.0","ethReceived":"0.0005","txHash":"0xf2b11ccddf4abbc6be6a50a45dc0e9d733eb09ef33d7a1d4dcc754283f167c2b"}
2025-04-09 10:04:29 [INFO]: Successfully sold ETH for USDC | Metadata: {"amount":"0.0005","usdcReceived":"1.0","txHash":"0x0ad96a0248829a2802c8a71f91afc28f645d88dff79b86d29d855732359dbb13"}
2025-04-09 10:07:46 [ERROR]: Failed to exchange USDC for DAJU | Metadata: {"amount":"100","error":"execution reverted (unknown custom error) (action=\"estimateGas\", data=\"0xfb8f41b20000000000000000000000005fc8d32690cc91d4c39d9d3abcbd16989f8757070000000000000000000000000000000000000000000000000000000000000000000000000000000000000000000000000000000000000000000000000bebc200\", reason=null, transaction={ \"data\": \"0xe037f8f10000000000000000000000000000000000000000000000000000000005f5e100\", \"from\": \"0xf39Fd6e51aad88F6F4ce6aB8827279cffFb92266\", \"to\": \"0x5FC8d32690cc91D4c39d9d3abcBD16989F875707\" }, invocation=null, revert=null, code=CALL_EXCEPTION, version=6.13.5)"}
2025-04-09 11:29:43 [ERROR]: Failed to exchange USDC for DAJU | Metadata: {"amount":"100","error":"unsupported addressable value (argument=\"target\", value=null, code=INVALID_ARGUMENT, version=6.13.5)"}
2025-04-09 11:33:15 [ERROR]: Failed to exchange USDC for DAJU | Metadata: {"amount":"100","error":"unsupported addressable value (argument=\"target\", value=null, code=INVALID_ARGUMENT, version=6.13.5)"}
2025-04-09 11:33:17 [ERROR]: Failed to exchange USDC for DAJU | Metadata: {"amount":"100","error":"unsupported addressable value (argument=\"target\", value=null, code=INVALID_ARGUMENT, version=6.13.5)"}
2025-04-09 11:38:51 [ERROR]: Failed to exchange USDC for DAJU | Metadata: {"amount":"100","error":"unsupported addressable value (argument=\"target\", value=null, code=INVALID_ARGUMENT, version=6.13.5)"}
2025-04-09 11:41:39 [ERROR]: Failed to exchange USDC for DAJU | Metadata: {"amount":"100","e2025-04-09 11:42:21 [ERROR]: Failed to exchange USDC for DAJU | Metadata: {"amount":"100","error":"unsupported addressable value (argument=\"target\", value=null, code=INVALID_ARGUMENT, version=6.13.5)"2025-04-09 11:44:38 [ERROR]: Failed to exchange USDC for DAJU | Metadata: {"amount":"100","error":"unsupported addressable value (argument=\"target\", value=null, code=INVALID_ARGUMENT, version=6.13.5)"}
2025-04-09 12:03:04 [ERROR]: Failed to exchange USDC for DAJU | Metadata: {"amount":"100","error":"approveTx.wait is not a function","stack":"TypeError: approveTx.wait is not a function\n    at TokenController.exchangeUSDCForDAJU (/home/ashish/Documents/dApps/te-be/controller/customToken.controller.js:140:29)\n    at process.processTicksAndRejections (node:internal/process/task_queues:105:5)\n    at async handler (/home/ashish/Documents/dApps/te-be/routes/tokenRoute.js:28:18)\n    at async /home/ashish/Documents/dApps/te-be/routes/tokenRoute.js:40:20","contractAddresses":{"usdc":"0x0E801D84Fa97b50751Dbf25036d067dCf18858bF","exchangeManager":"0x5eb3Bc0a489C5A8288765d2336659EbCA68FCd00"}}
2025-04-09 12:06:34 [ERROR]: Failed to exchange USDC for DAJU | Metadata: {"amount":"100","error":"could not coalesce error (error={ \"code\": -32603, \"data\": { \"data\": \"0x13be252b\", \"message\": \"Error: VM Exception while processing transaction: reverted with an unrecognized custom error (return data: 0x13be252b)\", \"txHash\": \"0x314ee664bf35153ecff84e6113990de7d54932dc38c5c6f1f988a2041da0c3fc\" }, \"message\": \"Error: VM Exception while processing transaction: reverted with an unrecognized custom error (return data: 0x13be252b)\" }, payload={ \"id\": 13, \"jsonrpc\": \"2.0\", \"method\": \"eth_sendRawTransaction\", \"params\": [ \"0x02f891827a6934843b9aca00843bc40d08830493e0945eb3bc0a489c5a8288765d2336659ebca68fcd0080a4e037f8f10000000000000000000000000000000000000000000000000000000005f5e100c080a0aab735ada2780c79601cec66477d13a4aa2808987cab89df728e8fae511492baa0586af5a62c8e0fb4607aa65859c10d309d26ffb52016381749a07afc6bd9041d\" ] }, code=UNKNOWN_ERROR, version=6.13.5)","stack":"Error: could not coalesce error (error={ \"code\": -32603, \"data\": { \"data\": \"0x13be252b\", \"message\": \"Error: VM Exception while processing transaction: reverted with an unrecognized custom error (return data: 0x13be252b)\", \"txHash\": \"0x314ee664bf35153ecff84e6113990de7d54932dc38c5c6f1f988a2041da0c3fc\" }, \"message\": \"Error: VM Exception while processing transaction: reverted with an unrecognized custom error (return data: 0x13be252b)\" }, payload={ \"id\": 13, \"jsonrpc\": \"2.0\", \"method\": \"eth_sendRawTransaction\", \"params\": [ \"0x02f891827a6934843b9aca00843bc40d08830493e0945eb3bc0a489c5a8288765d2336659ebca68fcd0080a4e037f8f10000000000000000000000000000000000000000000000000000000005f5e100c080a0aab735ada2780c79601cec66477d13a4aa2808987cab89df728e8fae511492baa0586af5a62c8e0fb4607aa65859c10d309d26ffb52016381749a07afc6bd9041d\" ] }, code=UNKNOWN_ERROR, version=6.13.5)\n    at makeError (/home/ashish/Documents/dApps/te-be/node_modules/ethers/lib.commonjs/utils/errors.js:129:21)\n    at JsonRpcProvider.getRpcError (/home/ashish/Documents/dApps/te-be/node_modules/ethers/lib.commonjs/providers/provider-jsonrpc.js:730:41)\n    at /home/ashish/Documents/dApps/te-be/node_modules/ethers/lib.commonjs/providers/provider-jsonrpc.js:302:45\n    at process.processTicksAndRejections (node:internal/process/task_queues:105:5)","contractAddresses":{"usdc":"0x0E801D84Fa97b50751Dbf25036d067dCf18858bF","exchangeManager":"0x5eb3Bc0a489C5A8288765d2336659EbCA68FCd00"}}
2025-04-09 12:08:00 [ERROR]: Failed to exchange USDC for DAJU | Metadata: {"amount":"100","error":"could not coalesce error (error={ \"code\": -32603, \"data\": { \"data\": \"0x13be252b\", \"message\": \"Error: VM Exception while processing transaction: reverted with an unrecognized custom error (return data: 0x13be252b)\", \"txHash\": \"0xc281ab839f62951ab81934be4aa5672b9e2a26f4a5dfa087121b1b0f08efcaca\" }, \"message\": \"Error: VM Exception while processing transaction: reverted with an unrecognized custom error (return data: 0x13be252b)\" }, payload={ \"id\": 13, \"jsonrpc\": \"2.0\", \"method\": \"eth_sendRawTransaction\", \"params\": [ \"0x02f891827a6935843b9aca00843bbee8c8830493e0945eb3bc0a489c5a8288765d2336659ebca68fcd0080a4e037f8f10000000000000000000000000000000000000000000000000000000005f5e100c001a09ee73de781caaf589d5ab1cccc3196c484817097d8019df866c0c01b363b9bbfa0438e8e54f9d481aa5e4236dabe53ceb67d44010ad1382cd728acfcd68907b28a\" ] }, code=UNKNOWN_ERROR, version=6.13.5)","stack":"Error: could not coalesce error (error={ \"code\": -32603, \"data\": { \"data\": \"0x13be252b\", \"message\": \"Error: VM Exception while processing transaction: reverted with an unrecognized custom error (return data: 0x13be252b)\", \"txHash\": \"0xc281ab839f62951ab81934be4aa5672b9e2a26f4a5dfa087121b1b0f08efcaca\" }, \"message\": \"Error: VM Exception while processing transaction: reverted with an unrecognized custom error (return data: 0x13be252b)\" }, payload={ \"id\": 13, \"jsonrpc\": \"2.0\", \"method\": \"eth_sendRawTransaction\", \"params\": [ \"0x02f891827a6935843b9aca00843bbee8c8830493e0945eb3bc0a489c5a8288765d2336659ebca68fcd0080a4e037f8f10000000000000000000000000000000000000000000000000000000005f5e100c001a09ee73de781caaf589d5ab1cccc3196c484817097d8019df866c0c01b363b9bbfa0438e8e54f9d481aa5e4236dabe53ceb67d44010ad1382cd728acfcd68907b28a\" ] }, code=UNKNOWN_ERROR, version=6.13.5)\n    at makeError (/home/ashish/Documents/dApps/te-be/node_modules/ethers/lib.commonjs/utils/errors.js:129:21)\n    at JsonRpcProvider.getRpcError (/home/ashish/Documents/dApps/te-be/node_modules/ethers/lib.commonjs/providers/provider-jsonrpc.js:730:41)\n    at /home/ashish/Documents/dApps/te-be/node_modules/ethers/lib.commonjs/providers/provider-jsonrpc.js:302:45\n    at process.processTicksAndRejections (node:internal/process/task_queues:105:5)","contractAddresses":{"usdc":"0x0E801D84Fa97b50751Dbf25036d067dCf18858bF","exchangeManager":"0x5eb3Bc0a489C5A8288765d2336659EbCA68FCd00"}}
2025-04-09 12:08:34 [ERROR]: Failed to exchange USDC for DAJU | Metadata: {"amount":"100","error":"could not coalesce error (error={ \"code\": -32603, \"data\": { \"data\": \"0x13be252b\", \"message\": \"Error: VM Exception while processing transaction: reverted with an unrecognized custom error (return data: 0x13be252b)\", \"txHash\": \"0x3286bdc96567da5f0a0fef64e96ccf2ba3b73e395b5fdb0ad84255de56a86a6c\" }, \"message\": \"Error: VM Exception while processing transaction: reverted with an unrecognized custom error (return data: 0x13be252b)\" }, payload={ \"id\": 13, \"jsonrpc\": \"2.0\", \"method\": \"eth_sendRawTransaction\", \"params\": [ \"0x02f891827a6936843b9aca00843bba6860830493e0945eb3bc0a489c5a8288765d2336659ebca68fcd0080a4e037f8f10000000000000000000000000000000000000000000000000000000005f5e100c080a0626d4a34618d43477917e889b9053ba03d88a2a37fa46272201c6de7db12b51da06db75dc943397fea30a8d3af9cc3517431a748946d91f55deb8ea58dfae8bacf\" ] }, code=UNKNOWN_ERROR, version=6.13.5)","stack":"Error: could not coalesce error (error={ \"code\": -32603, \"data\": { \"data\": \"0x13be252b\", \"message\": \"Error: VM Exception while processing transaction: reverted with an unrecognized custom error (return data: 0x13be252b)\", \"txHash\": \"0x3286bdc96567da5f0a0fef64e96ccf2ba3b73e395b5fdb0ad84255de56a86a6c\" }, \"message\": \"Error: VM Exception while processing transaction: reverted with an unrecognized custom error (return data: 0x13be252b)\" }, payload={ \"id\": 13, \"jsonrpc\": \"2.0\", \"method\": \"eth_sendRawTransaction\", \"params\": [ \"0x02f891827a6936843b9aca00843bba6860830493e0945eb3bc0a489c5a8288765d2336659ebca68fcd0080a4e037f8f10000000000000000000000000000000000000000000000000000000005f5e100c080a0626d4a34618d43477917e889b9053ba03d88a2a37fa46272201c6de7db12b51da06db75dc943397fea30a8d3af9cc3517431a748946d91f55deb8ea58dfae8bacf\" ] }, code=UNKNOWN_ERROR, version=6.13.5)\n    at makeError (/home/ashish/Documents/dApps/te-be/node_modules/ethers/lib.commonjs/utils/errors.js:129:21)\n    at JsonRpcProvider.getRpcError (/home/ashish/Documents/dApps/te-be/node_modules/ethers/lib.commonjs/providers/provider-jsonrpc.js:730:41)\n    at /home/ashish/Documents/dApps/te-be/node_modules/ethers/lib.commonjs/providers/provider-jsonrpc.js:302:45\n    at process.processTicksAndRejections (node:internal/process/task_queues:105:5)","contractAddresses":{"usdc":"0x0E801D84Fa97b50751Dbf25036d067dCf18858bF","exchangeManager":"0x5eb3Bc0a489C5A8288765d2336659EbCA68FCd00"}}
2025-04-09 12:12:11 [ERROR]: Failed to exchange USDC for DAJU | Metadata: {"amount":"100","error":"could not coalesce error (error={ \"code\": -32603, \"data\": { \"data\": \"0x13be252b\", \"message\": \"Error: VM Exception while processing transaction: reverted with an unrecognized custom error (return data: 0x13be252b)\", \"txHash\": \"0xe296af3b564351c15575597d5b6bcf22d6f77cd63fd20b8f77d35621225e9d25\" }, \"message\": \"Error: VM Exception while processing transaction: reverted with an unrecognized custom error (return data: 0x13be252b)\" }, payload={ \"id\": 15, \"jsonrpc\": \"2.0\", \"method\": \"eth_sendRawTransaction\", \"params\": [ \"0x02f891827a6937843b9aca00843bb67798830493e0945eb3bc0a489c5a8288765d2336659ebca68fcd0080a4e037f8f10000000000000000000000000000000000000000000000000000000005f5e100c080a08bc7975734030681762baafdac48594f39cecc79fd146371d414b653dc9d6f02a04a4c6b552eab0df1dda7c475c5ab6b23f38881990742bb8524a20d041e853685\" ] }, code=UNKNOWN_ERROR, version=6.13.5)","stack":"Error: could not coalesce error (error={ \"code\": -32603, \"data\": { \"data\": \"0x13be252b\", \"message\": \"Error: VM Exception while processing transaction: reverted with an unrecognized custom error (return data: 0x13be252b)\", \"txHash\": \"0xe296af3b564351c15575597d5b6bcf22d6f77cd63fd20b8f77d35621225e9d25\" }, \"message\": \"Error: VM Exception while processing transaction: reverted with an unrecognized custom error (return data: 0x13be252b)\" }, payload={ \"id\": 15, \"jsonrpc\": \"2.0\", \"method\": \"eth_sendRawTransaction\", \"params\": [ \"0x02f891827a6937843b9aca00843bb67798830493e0945eb3bc0a489c5a8288765d2336659ebca68fcd0080a4e037f8f10000000000000000000000000000000000000000000000000000000005f5e100c080a08bc7975734030681762baafdac48594f39cecc79fd146371d414b653dc9d6f02a04a4c6b552eab0df1dda7c475c5ab6b23f38881990742bb8524a20d041e853685\" ] }, code=UNKNOWN_ERROR, version=6.13.5)\n    at makeError (/home/ashish/Documents/dApps/te-be/node_modules/ethers/lib.commonjs/utils/errors.js:129:21)\n    at JsonRpcProvider.getRpcError (/home/ashish/Documents/dApps/te-be/node_modules/ethers/lib.commonjs/providers/provider-jsonrpc.js:730:41)\n    at /home/ashish/Documents/dApps/te-be/node_modules/ethers/lib.commonjs/providers/provider-jsonrpc.js:302:45\n    at process.processTicksAndRejections (node:internal/process/task_queues:105:5)","contractAddresses":{"usdc":"0x0E801D84Fa97b50751Dbf25036d067dCf18858bF","exchangeManager":"0x5eb3Bc0a489C5A8288765d2336659EbCA68FCd00"}}
2025-04-09 14:08:18 [ERROR]: Failed to exchange USDC for DAJU | Metadata: {"amount":"100","error":"could not coalesce error (error={ \"code\": -32603, \"data\": { \"data\": \"0x13be252b\", \"message\": \"Error: VM Exception while processing transaction: reverted with an unrecognized custom error (return data: 0x13be252b)\", \"txHash\": \"0xe0043650e12f92a9bef79ec689d6683194920186bcbb25f2cec7b87ce854fa0d\" }, \"message\": \"Error: VM Exception while processing transaction: reverted with an unrecognized custom error (return data: 0x13be252b)\" }, payload={ \"id\": 19, \"jsonrpc\": \"2.0\", \"method\": \"eth_sendRawTransaction\", \"params\": [ \"0x02f891827a6938843b9aca00843bb30488830493e0945eb3bc0a489c5a8288765d2336659ebca68fcd0080a4e037f8f10000000000000000000000000000000000000000000000000000000005f5e100c080a0b2741202f3d1750bea751e484f738ff1b625cda15243a281d5f4f8f76782b438a03ec3b56a19ae43d3cb93f4cb0247ebbf0182c90ec0f9b163d094c49b44824675\" ] }, code=UNKNOWN_ERROR, version=6.13.5)","stack":"Error: could not coalesce error (error={ \"code\": -32603, \"data\": { \"data\": \"0x13be252b\", \"message\": \"Error: VM Exception while processing transaction: reverted with an unrecognized custom error (return data: 0x13be252b)\", \"txHash\": \"0xe0043650e12f92a9bef79ec689d6683194920186bcbb25f2cec7b87ce854fa0d\" }, \"message\": \"Error: VM Exception while processing transaction: reverted with an unrecognized custom error (return data: 0x13be252b)\" }, payload={ \"id\": 19, \"jsonrpc\": \"2.0\", \"method\": \"eth_sendRawTransaction\", \"params\": [ \"0x02f891827a6938843b9aca00843bb30488830493e0945eb3bc0a489c5a8288765d2336659ebca68fcd0080a4e037f8f10000000000000000000000000000000000000000000000000000000005f5e100c080a0b2741202f3d1750bea751e484f738ff1b625cda15243a281d5f4f8f76782b438a03ec3b56a19ae43d3cb93f4cb0247ebbf0182c90ec0f9b163d094c49b44824675\" ] }, code=UNKNOWN_ERROR, version=6.13.5)\n    at makeError (/home/ashish/Documents/dApps/te-be/node_modules/ethers/lib.commonjs/utils/errors.js:129:21)\n    at JsonRpcProvider.getRpcError (/home/ashish/Documents/dApps/te-be/node_modules/ethers/lib.commonjs/providers/provider-jsonrpc.js:730:41)\n    at /home/ashish/Documents/dApps/te-be/node_modules/ethers/lib.commonjs/providers/provider-jsonrpc.js:302:45\n    at process.processTicksAndRejections (node:internal/process/task_queues:105:5)","contractAddresses":{"usdc":"0x0E801D84Fa97b50751Dbf25036d067dCf18858bF","exchangeManager":"0x5eb3Bc0a489C5A8288765d2336659EbCA68FCd00"}}
